:100000000C94BE000C94DB000C94DB000C94DB0021
:100010000C94DB000C94DB000C94DB000C94DB00F4
:100020000C94DB000C94DB000C94DB000C94760148
:100030000C94DB000C94DB000C94DB000C94DB00D4
:100040000C94DB000C94DB000C94DB000C94DB00C4
:100050000C94DB000C94DB000C94DB000C94DB00B4
:100060000C94DB000C94DB00029E240C9848401E8C
:10007000000810C062846070620E6EFC0000000018
:10008000000000000000FEFE0DFA001000FE13004C
:100090000016F9FE5BFBFA1CFEFE1FFC002200FEB0
:1000A00025000028FFFF2BFD002E00FF310000344B
:1000B000FE003700FF3A00003DFCFC40FD0043001D
:1000C000FC46000049FDFD4CFF004F00FD520000C2
:1000D00055FBFA5B00001C07075EFD00610007642A
:1000E0000000670000FF00000000000000000000AA
:1000F0000000000000000000000000000000000000
:1001000000000000000000000000000000000000EF
:1001100000000000000000000000000000000000DF
:1001200000000000000000000000000000000000CF
:1001300000000000000000000000000000000000BF
:1001400000000000000000000000000000000000AF
:10015000000000000000000000000000000000009F
:10016000000000000000000000000000000000008F
:1001700000000000000206010001000011241FBE63
:10018000CFEFD8E0DEBFCDBF11E0A0E0B1E0E4E604
:10019000FAE002C005900D92A834B107D9F725E026
:1001A000A8E4B1E001C01D92AE35B207E1F70E94AC
:1001B0009B040C941E050C94000089B18F708E3046
:1001C00091F410925B0510925A058091560590911A
:1001D0005705892B09F057C081E090E090935705AF
:1001E00080935605089589B18F708D3039F481E080
:1001F00090E090935B0580935A05E7CF89B18F70AB
:100200008B3019F482E090E0F4CF89B18F708730A1
:1002100019F483E090E0EDCF8FEF9FEF90935B05B3
:1002200080935A0510925705109256058FEF90E073
:1002300090935D0580935C051092590510925805C6
:100240008091540590915505019665E070E00E94FB
:10025000E904909355058093540582309105F1F19E
:1002600044F40197B9F18BB18F70806E8BB9289AE5
:10027000089583309105B1F10497A9F78BB1806F90
:100280008BB9289808958091580590915905892B2C
:10029000C9F780915A0590915B0525E0289FF001F0
:1002A000299FF00D11248091540590915505E80F78
:1002B000F91FEE0FFF1FE05EFE4F8081918190934A
:1002C0005D0580935C0581E090E0909359058093F3
:1002D000580508958BB18F70806DC8CF8BB18F702A
:1002E000806BC4CF8BB18F708067C0CF1F920F928D
:1002F0000FB60F9211242F933F934F935F936F93F9
:100300007F938F939F93AF93BF93EF93FF9318B80F
:10031000E0914C01F0914D01E25BFE4FE081F0E095
:10032000E531F1056CF185B18E6F85B981E090E022
:1003300000904C0102C0880F991F0A94E2F788B917
:1003400080914C0190914D01019666E070E00E9411
:10035000E90490934D0180934C010E94DD00FF91D0
:10036000EF91BF91AF919F918F917F916F915F912D
:100370004F913F912F910F900FBE0F901F901895A6
:10038000E859FF4FE49185B18170E82BE5B9CECFF4
:10039000CF93DF9300D000D000D0CDB7DEB78091EF
:1003A0005C0590915D058F3F910509F442C08F3443
:1003B000910509F060C086E0EEE4F1E0DE011196FF
:1003C00001900D928A95E1F746E050E063E170E01C
:1003D0008EE491E00E94170580915805909159058F
:1003E000892B71F5E0915C05F0915D05EF3FF1051A
:1003F00071F1EF70FF27EE0FFF1FE050FF4F80817C
:1004000091812091580530915905232B39F526E02B
:10041000FE013196AEE4B1E001900D922A95E1F72C
:1004200026960FB6F894DEBF0FBECDBFDF91CF91F9
:1004300008958FE19EE40197F1F700C00000AFCF6F
:10044000EFE1FEE43197F1F700C00000C5CF8FE186
:100450009EE40197F1F700C00000C4CFEFE1FEE495
:100460003197F1F700C00000CCCFEFE1FEE4319707
:10047000F1F700C000002091580530915905232B59
:10048000A1F7CECF80915C0590915D050895EFEFC7
:10049000E80FE930C0F4F0E0E05EFA4F0C94FD04A0
:1004A00080914E018F70089580914F01FBCF809114
:1004B0005001F8CF80915101F5CF80915201F2CFD8
:1004C00080915301EFCFE82FF0E0EC5AFE4F80818E
:1004D0000895EFEFE80FE93048F5F0E0E75DFA4FF7
:1004E0000C94FD0460934E010895609350010895AB
:1004F000609352010895862F8F7080934E0162950C
:100500006F7060934F010895862F8F708093500114
:1005100062956F70609351010895862F8F7080935C
:10052000520162956F70609353010895E82FF0E0D7
:10053000EC5AFE4F6083089581E180934E0182E181
:1005400080934F0180935001809351018093520119
:1005500080E1809353010E94C8018F38910541F0DA
:100560008F37910541F04F9749F483E090E008956B
:1005700081E090E0089582E090E008958FEF9FEF92
:100580000895CF92DF92EF92FF92CF93DF93D0E066
:10059000C0E0C0904801D0904901E0904A01F0903D
:1005A0004B018C2D0E944702982F9F7090934E0113
:1005B00090E024E0959587952A95E1F780934F0187
:1005C0008C2D8F7080935001D701C60134E0B69511
:1005D000A795979587953A95D1F78F70809351019C
:1005E0008D2D8F70809352014CE0F694E794D79450
:1005F000C7944A95D1F78C2D8F70809353010E9438
:10060000C8017C019FE3E916F104B1F4809148012F
:1006100090914901A0914A01B0914B010196A11D11
:10062000B11DAA27BB278093480190934901A0934D
:100630004A01B0934B01ABCF8FE2E816F10461F4AD
:100640008091480190914901A0914A01B0914B01DC
:100650000197A109B109E5CF90E1E916F104BCF4D5
:10066000D0904801CD2B39F46E2D8D2D0E9469025A
:10067000C1E0D0E08ECF8D2D0E94470290E1899F8E
:10068000B00111246E298D2D0E94690280CF8FE563
:10069000E816F10444F09FE8E916F10409F479CF73
:1006A00090E080E007C08FE1E816F10409F071CF17
:1006B00083E090E0DF91CF91FF90EF90DF90CF90BB
:1006C00008950F931F93CF9310E000E0CFEFC093F6
:1006D0004E01C0934F018091480190914901A09132
:1006E0004A01B0914B01282F2F7020935001AC018B
:1006F000BD01F4E07695679557954795FA95D1F742
:100700004F7040935101292F2F70209352012CE0FC
:10071000B695A795979587952A95D1F78F70809371
:1007200053010E94C8018F339105B1F480914801B3
:1007300090914901A0914A01B0914B010196A11DF0
:10074000B11DAA27BB278093480190934901A0932C
:100750004A01B0934B01BBCF8F32910561F4809178
:10076000480190914901A0914A01B0914B01019734
:10077000A109B109E6CF803191050CF07DC040910F
:1007800048015091490160914A0170914B0101303B
:100790001105E1F1E4F40115110509F098CF5F703E
:1007A00066277727982F88279295907FB0E0A0E062
:1007B000842B952BA62BB72B80934801909349014E
:1007C000A0934A01B0934B0101E010E080CF0230CA
:1007D0001105B1F10330110509F079CF407F66278B
:1007E00077278F709927092E000CAA0BBB0B842B3F
:1007F000952BA62BB72B8093480190934901A0938A
:100800004A01B0934B0110E000E061CF982F882798
:1008100088279F70092E000CAA0BBB0B507F662700
:100820007727842B952BA62BB72B80934801909389
:100830004901A0934A01B0934B0102E010E047CF79
:1008400024E0880F991F2A95E1F79927092E000CBB
:10085000AA0BBB0B4F7066277727842B952BA62BF3
:10086000B72B8093480190934901A0934A01B0931C
:100870004B0103E010E02BCF8F3591053CF08F3713
:10088000910509F424CF90E080E005C04F9709F06E
:100890001ECF83E090E0CF911F910F9108950F93A9
:1008A0001F93CF93DF938FEF80934E0180934F017F
:1008B00080935001809351018093520180935301A2
:1008C000CAE08C2F0E944702D82F81E08C0F0E9433
:1008D0004702182F82E08C0F0E944702082F8D2FAD
:1008E0000E944702D82F812F0E9447028D1BD82FCC
:1008F000682F812F0E94690280915C0590915D05AF
:100900004F9731F0CD5FD11101C0C02FC111D9CFA8
:100910008091580590915905892B31F4DF91CF9141
:100920001F910F910C94C8018FE19EE40197F1F79C
:1009300000C00000EDCFECE7F0E0A4E5B1E083E516
:1009400092E024912D9331968A179B07D1F78FEF70
:1009500090E090935D0580935C0510925505109290
:1009600054058FE387B98FEF84B990EF9AB9409A15
:1009700085B98BB98BE0809381001092850010922D
:10098000840089EF90E090938900809388008091A3
:100990006F00826080936F007894D0E0C0E0C23036
:1009A000D10579F0C330D10579F0C130D10531F0EE
:1009B0000E949C0297FDF3CFEC01F1CF0E94C1028F
:1009C000F9CF0E946103F6CF0E944F04D0E0C0E04F
:1009D000EFCF97FB072E16F4009407D077FD09D0D0
:1009E0000E94030507FC05D03EF4909581959F4F2A
:1009F0000895709561957F4F0895EE0FFF1F059044
:100A0000F491E02D0994AA1BBB1B51E107C0AA1F5A
:100A1000BB1FA617B70710F0A61BB70B881F991F9F
:100A20005A95A9F780959095BC01CD010895DC01F8
:100A300001C06D9341505040E0F70895F894FFCF06
:100A40005002540257025A025D02600250025702DD
:100A50005D027202810275028A02780293027B02B1
:040A600084028D027D
:100A64000000000000000000000000000000000082
:100A740000000000000000008F007F006F005F0096
:100A84000C000D000E000F004F00080009000A00C2
:100A94000B003F0004000500060007002F000000C3
:080AA4000100020003001F0025
:00000001FF
